{
  "contractName": "MedicalSupplyChain",
  "abi": [
    {
      "inputs": [],
      "stateMutability": "nonpayable",
      "type": "constructor"
    },
    {
      "anonymous": false,
      "inputs": [
        {
          "indexed": false,
          "internalType": "uint256",
          "name": "requestId",
          "type": "uint256"
        },
        {
          "indexed": false,
          "internalType": "uint256",
          "name": "rawMaterialId",
          "type": "uint256"
        },
        {
          "indexed": false,
          "internalType": "uint256",
          "name": "quantity",
          "type": "uint256"
        },
        {
          "indexed": false,
          "internalType": "address",
          "name": "supplier",
          "type": "address"
        }
      ],
      "name": "RawMaterialRequestApproved",
      "type": "event"
    },
    {
      "anonymous": false,
      "inputs": [
        {
          "indexed": false,
          "internalType": "uint256",
          "name": "requestId",
          "type": "uint256"
        },
        {
          "indexed": false,
          "internalType": "address",
          "name": "manufacturer",
          "type": "address"
        }
      ],
      "name": "RawMaterialRequestCancelled",
      "type": "event"
    },
    {
      "anonymous": false,
      "inputs": [
        {
          "indexed": false,
          "internalType": "uint256",
          "name": "requestId",
          "type": "uint256"
        },
        {
          "indexed": false,
          "internalType": "address",
          "name": "supplier",
          "type": "address"
        }
      ],
      "name": "RawMaterialRequestCancelledBySupplier",
      "type": "event"
    },
    {
      "anonymous": false,
      "inputs": [
        {
          "indexed": false,
          "internalType": "uint256",
          "name": "requestId",
          "type": "uint256"
        },
        {
          "indexed": false,
          "internalType": "uint256",
          "name": "rawMaterialId",
          "type": "uint256"
        },
        {
          "indexed": false,
          "internalType": "uint256",
          "name": "quantity",
          "type": "uint256"
        },
        {
          "indexed": false,
          "internalType": "address",
          "name": "manufacturer",
          "type": "address"
        }
      ],
      "name": "RawMaterialRequested",
      "type": "event"
    },
    {
      "inputs": [],
      "name": "equipmentCount",
      "outputs": [
        {
          "internalType": "uint256",
          "name": "",
          "type": "uint256"
        }
      ],
      "stateMutability": "view",
      "type": "function",
      "constant": true
    },
    {
      "inputs": [
        {
          "internalType": "uint256",
          "name": "",
          "type": "uint256"
        }
      ],
      "name": "equipments",
      "outputs": [
        {
          "internalType": "uint256",
          "name": "id",
          "type": "uint256"
        },
        {
          "internalType": "string",
          "name": "name",
          "type": "string"
        },
        {
          "internalType": "uint256",
          "name": "rawMaterialRequestId",
          "type": "uint256"
        },
        {
          "internalType": "uint256",
          "name": "price",
          "type": "uint256"
        },
        {
          "internalType": "string",
          "name": "category",
          "type": "string"
        },
        {
          "internalType": "address",
          "name": "manufacturer",
          "type": "address"
        },
        {
          "internalType": "bool",
          "name": "registered",
          "type": "bool"
        },
        {
          "internalType": "bool",
          "name": "verified",
          "type": "bool"
        },
        {
          "internalType": "bool",
          "name": "available",
          "type": "bool"
        }
      ],
      "stateMutability": "view",
      "type": "function",
      "constant": true
    },
    {
      "inputs": [
        {
          "internalType": "address",
          "name": "",
          "type": "address"
        }
      ],
      "name": "hospitals",
      "outputs": [
        {
          "internalType": "bool",
          "name": "",
          "type": "bool"
        }
      ],
      "stateMutability": "view",
      "type": "function",
      "constant": true
    },
    {
      "inputs": [
        {
          "internalType": "address",
          "name": "",
          "type": "address"
        }
      ],
      "name": "manufacturers",
      "outputs": [
        {
          "internalType": "bool",
          "name": "",
          "type": "bool"
        }
      ],
      "stateMutability": "view",
      "type": "function",
      "constant": true
    },
    {
      "inputs": [],
      "name": "orderCount",
      "outputs": [
        {
          "internalType": "uint256",
          "name": "",
          "type": "uint256"
        }
      ],
      "stateMutability": "view",
      "type": "function",
      "constant": true
    },
    {
      "inputs": [
        {
          "internalType": "uint256",
          "name": "",
          "type": "uint256"
        }
      ],
      "name": "orders",
      "outputs": [
        {
          "internalType": "uint256",
          "name": "id",
          "type": "uint256"
        },
        {
          "internalType": "uint256",
          "name": "equipmentId",
          "type": "uint256"
        },
        {
          "internalType": "string",
          "name": "equipmentName",
          "type": "string"
        },
        {
          "internalType": "uint256",
          "name": "quantity",
          "type": "uint256"
        },
        {
          "internalType": "uint256",
          "name": "totalPrice",
          "type": "uint256"
        },
        {
          "internalType": "address",
          "name": "transporter",
          "type": "address"
        },
        {
          "internalType": "bool",
          "name": "shipped",
          "type": "bool"
        },
        {
          "internalType": "bool",
          "name": "delivered",
          "type": "bool"
        }
      ],
      "stateMutability": "view",
      "type": "function",
      "constant": true
    },
    {
      "inputs": [],
      "name": "rawMaterialCount",
      "outputs": [
        {
          "internalType": "uint256",
          "name": "",
          "type": "uint256"
        }
      ],
      "stateMutability": "view",
      "type": "function",
      "constant": true
    },
    {
      "inputs": [
        {
          "internalType": "uint256",
          "name": "",
          "type": "uint256"
        }
      ],
      "name": "rawMaterialRequests",
      "outputs": [
        {
          "internalType": "uint256",
          "name": "id",
          "type": "uint256"
        },
        {
          "internalType": "uint256",
          "name": "rawMaterialId",
          "type": "uint256"
        },
        {
          "internalType": "uint256",
          "name": "quantity",
          "type": "uint256"
        },
        {
          "internalType": "address",
          "name": "manufacturer",
          "type": "address"
        },
        {
          "internalType": "bool",
          "name": "approved",
          "type": "bool"
        },
        {
          "internalType": "bool",
          "name": "cancelledBySupplier",
          "type": "bool"
        }
      ],
      "stateMutability": "view",
      "type": "function",
      "constant": true
    },
    {
      "inputs": [
        {
          "internalType": "uint256",
          "name": "",
          "type": "uint256"
        }
      ],
      "name": "rawMaterials",
      "outputs": [
        {
          "internalType": "uint256",
          "name": "id",
          "type": "uint256"
        },
        {
          "internalType": "string",
          "name": "name",
          "type": "string"
        },
        {
          "internalType": "uint256",
          "name": "quantity",
          "type": "uint256"
        },
        {
          "internalType": "uint256",
          "name": "price",
          "type": "uint256"
        },
        {
          "internalType": "string",
          "name": "category",
          "type": "string"
        },
        {
          "internalType": "address",
          "name": "supplier",
          "type": "address"
        }
      ],
      "stateMutability": "view",
      "type": "function",
      "constant": true
    },
    {
      "inputs": [],
      "name": "requestCount",
      "outputs": [
        {
          "internalType": "uint256",
          "name": "",
          "type": "uint256"
        }
      ],
      "stateMutability": "view",
      "type": "function",
      "constant": true
    },
    {
      "inputs": [
        {
          "internalType": "address",
          "name": "",
          "type": "address"
        }
      ],
      "name": "stakeholders",
      "outputs": [
        {
          "internalType": "bool",
          "name": "",
          "type": "bool"
        }
      ],
      "stateMutability": "view",
      "type": "function",
      "constant": true
    },
    {
      "inputs": [],
      "name": "superAdmin",
      "outputs": [
        {
          "internalType": "address",
          "name": "",
          "type": "address"
        }
      ],
      "stateMutability": "view",
      "type": "function",
      "constant": true
    },
    {
      "inputs": [
        {
          "internalType": "address",
          "name": "",
          "type": "address"
        }
      ],
      "name": "suppliers",
      "outputs": [
        {
          "internalType": "bool",
          "name": "",
          "type": "bool"
        }
      ],
      "stateMutability": "view",
      "type": "function",
      "constant": true
    },
    {
      "inputs": [
        {
          "internalType": "address",
          "name": "",
          "type": "address"
        }
      ],
      "name": "transporters",
      "outputs": [
        {
          "internalType": "bool",
          "name": "",
          "type": "bool"
        }
      ],
      "stateMutability": "view",
      "type": "function",
      "constant": true
    },
    {
      "inputs": [
        {
          "internalType": "address",
          "name": "",
          "type": "address"
        }
      ],
      "name": "userDetails",
      "outputs": [
        {
          "internalType": "string",
          "name": "name",
          "type": "string"
        },
        {
          "internalType": "string",
          "name": "contact",
          "type": "string"
        },
        {
          "internalType": "string",
          "name": "emailId",
          "type": "string"
        },
        {
          "internalType": "string",
          "name": "userAddress",
          "type": "string"
        }
      ],
      "stateMutability": "view",
      "type": "function",
      "constant": true
    },
    {
      "inputs": [
        {
          "internalType": "address",
          "name": "_addr",
          "type": "address"
        },
        {
          "internalType": "string",
          "name": "_name",
          "type": "string"
        },
        {
          "internalType": "string",
          "name": "_contact",
          "type": "string"
        },
        {
          "internalType": "string",
          "name": "_emailId",
          "type": "string"
        },
        {
          "internalType": "string",
          "name": "_userAddress",
          "type": "string"
        }
      ],
      "name": "registerSupplier",
      "outputs": [],
      "stateMutability": "nonpayable",
      "type": "function"
    },
    {
      "inputs": [
        {
          "internalType": "address",
          "name": "_addr",
          "type": "address"
        },
        {
          "internalType": "string",
          "name": "_name",
          "type": "string"
        },
        {
          "internalType": "string",
          "name": "_contact",
          "type": "string"
        },
        {
          "internalType": "string",
          "name": "_emailId",
          "type": "string"
        },
        {
          "internalType": "string",
          "name": "_userAddress",
          "type": "string"
        }
      ],
      "name": "registerManufacturer",
      "outputs": [],
      "stateMutability": "nonpayable",
      "type": "function"
    },
    {
      "inputs": [
        {
          "internalType": "address",
          "name": "_addr",
          "type": "address"
        },
        {
          "internalType": "string",
          "name": "_name",
          "type": "string"
        },
        {
          "internalType": "string",
          "name": "_contact",
          "type": "string"
        },
        {
          "internalType": "string",
          "name": "_emailId",
          "type": "string"
        },
        {
          "internalType": "string",
          "name": "_userAddress",
          "type": "string"
        }
      ],
      "name": "registerHospital",
      "outputs": [],
      "stateMutability": "nonpayable",
      "type": "function"
    },
    {
      "inputs": [
        {
          "internalType": "address",
          "name": "_addr",
          "type": "address"
        },
        {
          "internalType": "string",
          "name": "_name",
          "type": "string"
        },
        {
          "internalType": "string",
          "name": "_contact",
          "type": "string"
        },
        {
          "internalType": "string",
          "name": "_emailId",
          "type": "string"
        },
        {
          "internalType": "string",
          "name": "_userAddress",
          "type": "string"
        }
      ],
      "name": "registerTransporter",
      "outputs": [],
      "stateMutability": "nonpayable",
      "type": "function"
    },
    {
      "inputs": [
        {
          "internalType": "address",
          "name": "_addr",
          "type": "address"
        },
        {
          "internalType": "string",
          "name": "_name",
          "type": "string"
        },
        {
          "internalType": "string",
          "name": "_contact",
          "type": "string"
        },
        {
          "internalType": "string",
          "name": "_emailId",
          "type": "string"
        },
        {
          "internalType": "string",
          "name": "_userAddress",
          "type": "string"
        }
      ],
      "name": "registerStakeholder",
      "outputs": [],
      "stateMutability": "nonpayable",
      "type": "function"
    },
    {
      "inputs": [
        {
          "internalType": "string",
          "name": "_name",
          "type": "string"
        },
        {
          "internalType": "uint256",
          "name": "_quantity",
          "type": "uint256"
        },
        {
          "internalType": "uint256",
          "name": "_price",
          "type": "uint256"
        },
        {
          "internalType": "string",
          "name": "_category",
          "type": "string"
        }
      ],
      "name": "createRawMaterial",
      "outputs": [],
      "stateMutability": "nonpayable",
      "type": "function"
    },
    {
      "inputs": [
        {
          "internalType": "uint256",
          "name": "_rawMaterialId",
          "type": "uint256"
        },
        {
          "internalType": "uint256",
          "name": "_quantity",
          "type": "uint256"
        }
      ],
      "name": "requestRawMaterial",
      "outputs": [],
      "stateMutability": "nonpayable",
      "type": "function"
    },
    {
      "inputs": [
        {
          "internalType": "uint256",
          "name": "_requestId",
          "type": "uint256"
        }
      ],
      "name": "approveRawMaterialRequest",
      "outputs": [],
      "stateMutability": "nonpayable",
      "type": "function"
    },
    {
      "inputs": [
        {
          "internalType": "uint256",
          "name": "_requestId",
          "type": "uint256"
        }
      ],
      "name": "cancelRawMaterialRequest",
      "outputs": [],
      "stateMutability": "nonpayable",
      "type": "function"
    },
    {
      "inputs": [
        {
          "internalType": "uint256",
          "name": "_requestId",
          "type": "uint256"
        }
      ],
      "name": "supplierCancelRawMaterialRequest",
      "outputs": [],
      "stateMutability": "nonpayable",
      "type": "function"
    },
    {
      "inputs": [
        {
          "internalType": "string",
          "name": "_name",
          "type": "string"
        },
        {
          "internalType": "uint256",
          "name": "_rawMaterialRequestId",
          "type": "uint256"
        },
        {
          "internalType": "uint256",
          "name": "_price",
          "type": "uint256"
        },
        {
          "internalType": "string",
          "name": "_category",
          "type": "string"
        },
        {
          "internalType": "bool",
          "name": "_register",
          "type": "bool"
        }
      ],
      "name": "createEquipment",
      "outputs": [],
      "stateMutability": "nonpayable",
      "type": "function"
    },
    {
      "inputs": [
        {
          "internalType": "uint256",
          "name": "_equipmentId",
          "type": "uint256"
        },
        {
          "internalType": "bool",
          "name": "_isValid",
          "type": "bool"
        }
      ],
      "name": "verifyEquipment",
      "outputs": [],
      "stateMutability": "nonpayable",
      "type": "function"
    },
    {
      "inputs": [
        {
          "internalType": "uint256",
          "name": "_equipmentId",
          "type": "uint256"
        }
      ],
      "name": "isEquipmentAvailableForOrder",
      "outputs": [
        {
          "internalType": "bool",
          "name": "",
          "type": "bool"
        }
      ],
      "stateMutability": "view",
      "type": "function",
      "constant": true
    },
    {
      "inputs": [
        {
          "internalType": "uint256",
          "name": "_equipmentId",
          "type": "uint256"
        },
        {
          "internalType": "uint256",
          "name": "_quantity",
          "type": "uint256"
        }
      ],
      "name": "orderEquipment",
      "outputs": [],
      "stateMutability": "nonpayable",
      "type": "function"
    },
    {
      "inputs": [
        {
          "internalType": "uint256",
          "name": "_orderId",
          "type": "uint256"
        }
      ],
      "name": "shipEquipment",
      "outputs": [],
      "stateMutability": "nonpayable",
      "type": "function"
    },
    {
      "inputs": [
        {
          "internalType": "uint256",
          "name": "_orderId",
          "type": "uint256"
        }
      ],
      "name": "confirmDelivery",
      "outputs": [],
      "stateMutability": "nonpayable",
      "type": "function"
    }
  ],
  "bytecode": "0x608060405234801561001057600080fd5b50336000806101000a81548173ffffffffffffffffffffffffffffffffffffffff021916908373ffffffffffffffffffffffffffffffffffffffff160217905550613fc8806100606000396000f3fe608060405234801561001057600080fd5b50600436106101e55760003560e01c80636ea0d4de1161010f578063c07cfca9116100a2578063ed68052711610071578063ed680527146105cc578063f076956a146105e8578063f093cf8014610604578063fd84cb9714610634576101e5565b8063c07cfca914610534578063e023545614610564578063e25bd15814610580578063e502e2c7146105b0576101e5565b8063a6efd620116100de578063a6efd62014610474578063a85c38ef146104ac578063b2ea9433146104e3578063c04b8cc114610518576101e5565b80636ea0d4de146104025780637683929f1461041e5780637ed357fd1461043c57806384b74fea14610458576101e5565b80633c1824ae116101875780635badbe4c116101565780635badbe4c1461037c5780635c0c51dd1461039a5780635fa650a8146103b65780636b5eb09c146103d2576101e5565b80633c1824ae146102c85780633d5422c4146102f857806348dec2a71461032d5780635957a76814610360576101e5565b80631bbadf58116101c35780631bbadf58146102525780632453ffa81461026e57806328512d2b1461028c57806329575f6a146102aa576101e5565b806301bb3300146101ea57806315f87f741461020657806316dc15fe14610222575b600080fd5b61020460048036038101906101ff9190612a5c565b610650565b005b610220600480360381019061021b9190612a89565b6108f1565b005b61023c60048036038101906102379190612b27565b610bca565b6040516102499190612b6f565b60405180910390f35b61026c60048036038101906102679190612cd0565b610bea565b005b610276610ce4565b6040516102839190612dca565b60405180910390f35b610294610cea565b6040516102a19190612dca565b60405180910390f35b6102b2610cf0565b6040516102bf9190612df4565b60405180910390f35b6102e260048036038101906102dd9190612a5c565b610d14565b6040516102ef9190612b6f565b60405180910390f35b610312600480360381019061030d9190612a5c565b610d7a565b60405161032496959493929190612e8e565b60405180910390f35b61034760048036038101906103429190612b27565b610ee6565b6040516103579493929190612efd565b60405180910390f35b61037a60048036038101906103759190612a89565b611136565b005b6103846113d7565b6040516103919190612dca565b60405180910390f35b6103b460048036038101906103af9190612cd0565b6113dd565b005b6103d060048036038101906103cb9190612f8a565b6114d7565b005b6103ec60048036038101906103e79190612b27565b6117e7565b6040516103f99190612b6f565b60405180910390f35b61041c60048036038101906104179190612a5c565b611807565b005b610426611ad7565b6040516104339190612dca565b60405180910390f35b61045660048036038101906104519190612cd0565b611add565b005b610472600480360381019061046d919061303d565b611bd7565b005b61048e60048036038101906104899190612a5c565b611d6f565b6040516104a3999897969594939291906130dc565b60405180910390f35b6104c660048036038101906104c19190612a5c565b611f14565b6040516104da989796959493929190613177565b60405180910390f35b6104fd60048036038101906104f89190612a5c565b61201e565b60405161050f969594939291906131fc565b60405180910390f35b610532600480360381019061052d9190612a5c565b612094565b005b61054e60048036038101906105499190612b27565b6121ed565b60405161055b9190612b6f565b60405180910390f35b61057e60048036038101906105799190612cd0565b61220d565b005b61059a60048036038101906105959190612b27565b612307565b6040516105a79190612b6f565b60405180910390f35b6105ca60048036038101906105c59190612a5c565b612327565b005b6105e660048036038101906105e1919061325d565b61256b565b005b61060260048036038101906105fd9190612cd0565b61269c565b005b61061e60048036038101906106199190612b27565b612796565b60405161062b9190612b6f565b60405180910390f35b61064e60048036038101906106499190612a5c565b6127b6565b005b600360003373ffffffffffffffffffffffffffffffffffffffff1673ffffffffffffffffffffffffffffffffffffffff16815260200190815260200160002060009054906101000a900460ff166106dc576040517f08c379a00000000000000000000000000000000000000000000000000000000081526004016106d3906132e9565b60405180910390fd5b6000600a60008381526020019081526020016000209050600081600001540361073a576040517f08c379a000000000000000000000000000000000000000000000000000000000815260040161073190613355565b60405180910390fd5b3373ffffffffffffffffffffffffffffffffffffffff168160030160009054906101000a900473ffffffffffffffffffffffffffffffffffffffff1673ffffffffffffffffffffffffffffffffffffffff16146107cc576040517f08c379a00000000000000000000000000000000000000000000000000000000081526004016107c3906133c1565b60405180910390fd5b8060030160149054906101000a900460ff1615806107f857508060030160159054906101000a900460ff165b610837576040517f08c379a000000000000000000000000000000000000000000000000000000000815260040161082e9061342d565b60405180910390fd5b600a6000838152602001908152602001600020600080820160009055600182016000905560028201600090556003820160006101000a81549073ffffffffffffffffffffffffffffffffffffffff02191690556003820160146101000a81549060ff02191690556003820160156101000a81549060ff021916905550507f7e6e280f5145234227213500aa5a5f44715c96e7251532490381cfc1b9815d4682336040516108e592919061344d565b60405180910390a15050565b600460003373ffffffffffffffffffffffffffffffffffffffff1673ffffffffffffffffffffffffffffffffffffffff16815260200190815260200160002060009054906101000a900460ff1661097d576040517f08c379a0000000000000000000000000000000000000000000000000000000008152600401610974906134c2565b60405180910390fd5b6000600c6000848152602001908152602001600020905061099d83610d14565b6109dc576040517f08c379a00000000000000000000000000000000000000000000000000000000081526004016109d39061352e565b60405180910390fd5b600d60008154809291906109ef9061357d565b9190505550604051806101000160405280600d548152602001848152602001826001018054610a1d906135f4565b80601f0160208091040260200160405190810160405280929190818152602001828054610a49906135f4565b8015610a965780601f10610a6b57610100808354040283529160200191610a96565b820191906000526020600020905b815481529060010190602001808311610a7957829003601f168201915b50505050508152602001838152602001838360030154610ab69190613625565b8152602001600073ffffffffffffffffffffffffffffffffffffffff16815260200160001515815260200160001515815250600e6000600d54815260200190815260200160002060008201518160000155602082015181600101556040820151816002019081610b269190613813565b50606082015181600301556080820151816004015560a08201518160050160006101000a81548173ffffffffffffffffffffffffffffffffffffffff021916908373ffffffffffffffffffffffffffffffffffffffff16021790555060c08201518160050160146101000a81548160ff02191690831515021790555060e08201518160050160156101000a81548160ff021916908315150217905550905050505050565b60026020528060005260406000206000915054906101000a900460ff1681565b60008054906101000a900473ffffffffffffffffffffffffffffffffffffffff1673ffffffffffffffffffffffffffffffffffffffff163373ffffffffffffffffffffffffffffffffffffffff1614610c78576040517f08c379a0000000000000000000000000000000000000000000000000000000008152600401610c6f90613931565b60405180910390fd5b6001600560008773ffffffffffffffffffffffffffffffffffffffff1673ffffffffffffffffffffffffffffffffffffffff16815260200190815260200160002060006101000a81548160ff021916908315150217905550610cdd8585858585612950565b5050505050565b600d5481565b600b5481565b60008054906101000a900473ffffffffffffffffffffffffffffffffffffffff1681565b600080600c600084815260200190815260200160002090508060050160149054906101000a900460ff168015610d5857508060050160159054906101000a900460ff165b8015610d7257508060050160169054906101000a900460ff165b915050919050565b6008602052806000526040600020600091509050806000015490806001018054610da3906135f4565b80601f0160208091040260200160405190810160405280929190818152602001828054610dcf906135f4565b8015610e1c5780601f10610df157610100808354040283529160200191610e1c565b820191906000526020600020905b815481529060010190602001808311610dff57829003601f168201915b505050505090806002015490806003015490806004018054610e3d906135f4565b80601f0160208091040260200160405190810160405280929190818152602001828054610e69906135f4565b8015610eb65780601f10610e8b57610100808354040283529160200191610eb6565b820191906000526020600020905b815481529060010190602001808311610e9957829003601f168201915b5050505050908060050160009054906101000a900473ffffffffffffffffffffffffffffffffffffffff16905086565b6001602052806000526040600020600091509050806000018054610f09906135f4565b80601f0160208091040260200160405190810160405280929190818152602001828054610f35906135f4565b8015610f825780601f10610f5757610100808354040283529160200191610f82565b820191906000526020600020905b815481529060010190602001808311610f6557829003601f168201915b505050505090806001018054610f97906135f4565b80601f0160208091040260200160405190810160405280929190818152602001828054610fc3906135f4565b80156110105780601f10610fe557610100808354040283529160200191611010565b820191906000526020600020905b815481529060010190602001808311610ff357829003601f168201915b505050505090806002018054611025906135f4565b80601f0160208091040260200160405190810160405280929190818152602001828054611051906135f4565b801561109e5780601f106110735761010080835404028352916020019161109e565b820191906000526020600020905b81548152906001019060200180831161108157829003601f168201915b5050505050908060030180546110b3906135f4565b80601f01602080910402602001604051908101604052809291908181526020018280546110df906135f4565b801561112c5780601f106111015761010080835404028352916020019161112c565b820191906000526020600020905b81548152906001019060200180831161110f57829003601f168201915b5050505050905084565b600360003373ffffffffffffffffffffffffffffffffffffffff1673ffffffffffffffffffffffffffffffffffffffff16815260200190815260200160002060009054906101000a900460ff166111c2576040517f08c379a00000000000000000000000000000000000000000000000000000000081526004016111b9906132e9565b60405180910390fd5b600060086000848152602001908152602001600020600001540361121b576040517f08c379a00000000000000000000000000000000000000000000000000000000081526004016112129061399d565b60405180910390fd5b8060086000848152602001908152602001600020600201541015611274576040517f08c379a000000000000000000000000000000000000000000000000000000000815260040161126b90613a09565b60405180910390fd5b600960008154809291906112879061357d565b91905055506040518060c0016040528060095481526020018381526020018281526020013373ffffffffffffffffffffffffffffffffffffffff16815260200160001515815260200160001515815250600a6000600954815260200190815260200160002060008201518160000155602082015181600101556040820151816002015560608201518160030160006101000a81548173ffffffffffffffffffffffffffffffffffffffff021916908373ffffffffffffffffffffffffffffffffffffffff16021790555060808201518160030160146101000a81548160ff02191690831515021790555060a08201518160030160156101000a81548160ff0219169083151502179055509050507fe255d9397cb7d6122043aabb271b6428c1f2ea1b6eae688f74188b361acb94276009548383336040516113cb9493929190613a29565b60405180910390a15050565b60095481565b60008054906101000a900473ffffffffffffffffffffffffffffffffffffffff1673ffffffffffffffffffffffffffffffffffffffff163373ffffffffffffffffffffffffffffffffffffffff161461146b576040517f08c379a000000000000000000000000000000000000000000000000000000000815260040161146290613931565b60405180910390fd5b6001600360008773ffffffffffffffffffffffffffffffffffffffff1673ffffffffffffffffffffffffffffffffffffffff16815260200190815260200160002060006101000a81548160ff0219169083151502179055506114d08585858585612950565b5050505050565b600360003373ffffffffffffffffffffffffffffffffffffffff1673ffffffffffffffffffffffffffffffffffffffff16815260200190815260200160002060009054906101000a900460ff16611563576040517f08c379a000000000000000000000000000000000000000000000000000000000815260040161155a906132e9565b60405180910390fd5b6000600a600086815260200190815260200160002090508060030160149054906101000a900460ff166115cb576040517f08c379a00000000000000000000000000000000000000000000000000000000081526004016115c290613ae0565b60405180910390fd5b3373ffffffffffffffffffffffffffffffffffffffff168160030160009054906101000a900473ffffffffffffffffffffffffffffffffffffffff1673ffffffffffffffffffffffffffffffffffffffff161461165d576040517f08c379a0000000000000000000000000000000000000000000000000000000008152600401611654906133c1565b60405180910390fd5b600b60008154809291906116709061357d565b9190505550604051806101200160405280600b5481526020018781526020018681526020018581526020018481526020013373ffffffffffffffffffffffffffffffffffffffff168152602001831515815260200160001515815260200160001515815250600c6000600b5481526020019081526020016000206000820151816000015560208201518160010190816117099190613813565b50604082015181600201556060820151816003015560808201518160040190816117339190613813565b5060a08201518160050160006101000a81548173ffffffffffffffffffffffffffffffffffffffff021916908373ffffffffffffffffffffffffffffffffffffffff16021790555060c08201518160050160146101000a81548160ff02191690831515021790555060e08201518160050160156101000a81548160ff0219169083151502179055506101008201518160050160166101000a81548160ff021916908315150217905550905050505050505050565b60036020528060005260406000206000915054906101000a900460ff1681565b600260003373ffffffffffffffffffffffffffffffffffffffff1673ffffffffffffffffffffffffffffffffffffffff16815260200190815260200160002060009054906101000a900460ff16611893576040517f08c379a000000000000000000000000000000000000000000000000000000000815260040161188a90613b4c565b60405180910390fd5b6000600a6000838152602001908152602001600020905060008160000154036118f1576040517f08c379a00000000000000000000000000000000000000000000000000000000081526004016118e890613355565b60405180910390fd5b8060030160149054906101000a900460ff1615611943576040517f08c379a000000000000000000000000000000000000000000000000000000000815260040161193a90613bb8565b60405180910390fd5b3373ffffffffffffffffffffffffffffffffffffffff16600860008360010154815260200190815260200160002060050160009054906101000a900473ffffffffffffffffffffffffffffffffffffffff1673ffffffffffffffffffffffffffffffffffffffff16146119eb576040517f08c379a00000000000000000000000000000000000000000000000000000000081526004016119e290613c24565b60405180910390fd5b600060086000836001015481526020019081526020016000209050816002015481600201541015611a51576040517f08c379a0000000000000000000000000000000000000000000000000000000008152600401611a4890613c90565b60405180910390fd5b8160020154816002016000828254611a699190613cb0565b9250508190555060018260030160146101000a81548160ff0219169083151502179055507ff58fc4f9c991e2708fe74a6a8606e6ed52c9a643f7504906fb2a6a5e430f7864838360010154846002015433604051611aca9493929190613a29565b60405180910390a1505050565b60075481565b60008054906101000a900473ffffffffffffffffffffffffffffffffffffffff1673ffffffffffffffffffffffffffffffffffffffff163373ffffffffffffffffffffffffffffffffffffffff1614611b6b576040517f08c379a0000000000000000000000000000000000000000000000000000000008152600401611b6290613931565b60405180910390fd5b6001600260008773ffffffffffffffffffffffffffffffffffffffff1673ffffffffffffffffffffffffffffffffffffffff16815260200190815260200160002060006101000a81548160ff021916908315150217905550611bd08585858585612950565b5050505050565b600260003373ffffffffffffffffffffffffffffffffffffffff1673ffffffffffffffffffffffffffffffffffffffff16815260200190815260200160002060009054906101000a900460ff16611c63576040517f08c379a0000000000000000000000000000000000000000000000000000000008152600401611c5a90613b4c565b60405180910390fd5b60076000815480929190611c769061357d565b91905055506040518060c0016040528060075481526020018581526020018481526020018381526020018281526020013373ffffffffffffffffffffffffffffffffffffffff16815250600860006007548152602001908152602001600020600082015181600001556020820151816001019081611cf49190613813565b5060408201518160020155606082015181600301556080820151816004019081611d1e9190613813565b5060a08201518160050160006101000a81548173ffffffffffffffffffffffffffffffffffffffff021916908373ffffffffffffffffffffffffffffffffffffffff16021790555090505050505050565b600c602052806000526040600020600091509050806000015490806001018054611d98906135f4565b80601f0160208091040260200160405190810160405280929190818152602001828054611dc4906135f4565b8015611e115780601f10611de657610100808354040283529160200191611e11565b820191906000526020600020905b815481529060010190602001808311611df457829003601f168201915b505050505090806002015490806003015490806004018054611e32906135f4565b80601f0160208091040260200160405190810160405280929190818152602001828054611e5e906135f4565b8015611eab5780601f10611e8057610100808354040283529160200191611eab565b820191906000526020600020905b815481529060010190602001808311611e8e57829003601f168201915b5050505050908060050160009054906101000a900473ffffffffffffffffffffffffffffffffffffffff16908060050160149054906101000a900460ff16908060050160159054906101000a900460ff16908060050160169054906101000a900460ff16905089565b600e602052806000526040600020600091509050806000015490806001015490806002018054611f43906135f4565b80601f0160208091040260200160405190810160405280929190818152602001828054611f6f906135f4565b8015611fbc5780601f10611f9157610100808354040283529160200191611fbc565b820191906000526020600020905b815481529060010190602001808311611f9f57829003601f168201915b5050505050908060030154908060040154908060050160009054906101000a900473ffffffffffffffffffffffffffffffffffffffff16908060050160149054906101000a900460ff16908060050160159054906101000a900460ff16905088565b600a6020528060005260406000206000915090508060000154908060010154908060020154908060030160009054906101000a900473ffffffffffffffffffffffffffffffffffffffff16908060030160149054906101000a900460ff16908060030160159054906101000a900460ff16905086565b600560003373ffffffffffffffffffffffffffffffffffffffff1673ffffffffffffffffffffffffffffffffffffffff16815260200190815260200160002060009054906101000a900460ff16612120576040517f08c379a000000000000000000000000000000000000000000000000000000000815260040161211790613d30565b60405180910390fd5b6000600e600083815260200190815260200160002090508060050160149054906101000a900460ff1615612189576040517f08c379a000000000000000000000000000000000000000000000000000000000815260040161218090613d9c565b60405180910390fd5b60018160050160146101000a81548160ff021916908315150217905550338160050160006101000a81548173ffffffffffffffffffffffffffffffffffffffff021916908373ffffffffffffffffffffffffffffffffffffffff1602179055505050565b60066020528060005260406000206000915054906101000a900460ff1681565b60008054906101000a900473ffffffffffffffffffffffffffffffffffffffff1673ffffffffffffffffffffffffffffffffffffffff163373ffffffffffffffffffffffffffffffffffffffff161461229b576040517f08c379a000000000000000000000000000000000000000000000000000000000815260040161229290613931565b60405180910390fd5b6001600460008773ffffffffffffffffffffffffffffffffffffffff1673ffffffffffffffffffffffffffffffffffffffff16815260200190815260200160002060006101000a81548160ff0219169083151502179055506123008585858585612950565b5050505050565b60056020528060005260406000206000915054906101000a900460ff1681565b600260003373ffffffffffffffffffffffffffffffffffffffff1673ffffffffffffffffffffffffffffffffffffffff16815260200190815260200160002060009054906101000a900460ff166123b3576040517f08c379a00000000000000000000000000000000000000000000000000000000081526004016123aa90613b4c565b60405180910390fd5b6000600a600083815260200190815260200160002090506000816000015403612411576040517f08c379a000000000000000000000000000000000000000000000000000000000815260040161240890613355565b60405180910390fd5b8060030160149054906101000a900460ff1615612463576040517f08c379a000000000000000000000000000000000000000000000000000000000815260040161245a90613bb8565b60405180910390fd5b6000600860008360010154815260200190815260200160002090503373ffffffffffffffffffffffffffffffffffffffff168160050160009054906101000a900473ffffffffffffffffffffffffffffffffffffffff1673ffffffffffffffffffffffffffffffffffffffff1614612510576040517f08c379a000000000000000000000000000000000000000000000000000000000815260040161250790613c24565b60405180910390fd5b60018260030160156101000a81548160ff0219169083151502179055507f23baa926c835a9e3da516e6f51d880f79ba12d88c97179364a499dc9ddfa0c80833360405161255e92919061344d565b60405180910390a1505050565b600660003373ffffffffffffffffffffffffffffffffffffffff1673ffffffffffffffffffffffffffffffffffffffff16815260200190815260200160002060009054906101000a900460ff166125f7576040517f08c379a00000000000000000000000000000000000000000000000000000000081526004016125ee90613e08565b60405180910390fd5b6000600c600084815260200190815260200160002090508060050160149054906101000a900460ff1661265f576040517f08c379a000000000000000000000000000000000000000000000000000000000815260040161265690613e9a565b60405180910390fd5b818160050160156101000a81548160ff021916908315150217905550818160050160166101000a81548160ff021916908315150217905550505050565b60008054906101000a900473ffffffffffffffffffffffffffffffffffffffff1673ffffffffffffffffffffffffffffffffffffffff163373ffffffffffffffffffffffffffffffffffffffff161461272a576040517f08c379a000000000000000000000000000000000000000000000000000000000815260040161272190613931565b60405180910390fd5b6001600660008773ffffffffffffffffffffffffffffffffffffffff1673ffffffffffffffffffffffffffffffffffffffff16815260200190815260200160002060006101000a81548160ff02191690831515021790555061278f8585858585612950565b5050505050565b60046020528060005260406000206000915054906101000a900460ff1681565b600460003373ffffffffffffffffffffffffffffffffffffffff1673ffffffffffffffffffffffffffffffffffffffff16815260200190815260200160002060009054906101000a900460ff16612842576040517f08c379a0000000000000000000000000000000000000000000000000000000008152600401612839906134c2565b60405180910390fd5b6000600e600083815260200190815260200160002090508060050160149054906101000a900460ff166128aa576040517f08c379a00000000000000000000000000000000000000000000000000000000081526004016128a190613f06565b60405180910390fd5b8060050160159054906101000a900460ff16156128fc576040517f08c379a00000000000000000000000000000000000000000000000000000000081526004016128f390613f72565b60405180910390fd5b60018160050160156101000a81548160ff0219169083151502179055506000600c60008360010154815260200190815260200160002060050160166101000a81548160ff0219169083151502179055505050565b604051806080016040528085815260200184815260200183815260200182815250600160008773ffffffffffffffffffffffffffffffffffffffff1673ffffffffffffffffffffffffffffffffffffffff16815260200190815260200160002060008201518160000190816129c59190613813565b5060208201518160010190816129db9190613813565b5060408201518160020190816129f19190613813565b506060820151816003019081612a079190613813565b509050505050505050565b6000604051905090565b600080fd5b600080fd5b6000819050919050565b612a3981612a26565b8114612a4457600080fd5b50565b600081359050612a5681612a30565b92915050565b600060208284031215612a7257612a71612a1c565b5b6000612a8084828501612a47565b91505092915050565b60008060408385031215612aa057612a9f612a1c565b5b6000612aae85828601612a47565b9250506020612abf85828601612a47565b9150509250929050565b600073ffffffffffffffffffffffffffffffffffffffff82169050919050565b6000612af482612ac9565b9050919050565b612b0481612ae9565b8114612b0f57600080fd5b50565b600081359050612b2181612afb565b92915050565b600060208284031215612b3d57612b3c612a1c565b5b6000612b4b84828501612b12565b91505092915050565b60008115159050919050565b612b6981612b54565b82525050565b6000602082019050612b846000830184612b60565b92915050565b600080fd5b600080fd5b6000601f19601f8301169050919050565b7f4e487b7100000000000000000000000000000000000000000000000000000000600052604160045260246000fd5b612bdd82612b94565b810181811067ffffffffffffffff82111715612bfc57612bfb612ba5565b5b80604052505050565b6000612c0f612a12565b9050612c1b8282612bd4565b919050565b600067ffffffffffffffff821115612c3b57612c3a612ba5565b5b612c4482612b94565b9050602081019050919050565b82818337600083830152505050565b6000612c73612c6e84612c20565b612c05565b905082815260208101848484011115612c8f57612c8e612b8f565b5b612c9a848285612c51565b509392505050565b600082601f830112612cb757612cb6612b8a565b5b8135612cc7848260208601612c60565b91505092915050565b600080600080600060a08688031215612cec57612ceb612a1c565b5b6000612cfa88828901612b12565b955050602086013567ffffffffffffffff811115612d1b57612d1a612a21565b5b612d2788828901612ca2565b945050604086013567ffffffffffffffff811115612d4857612d47612a21565b5b612d5488828901612ca2565b935050606086013567ffffffffffffffff811115612d7557612d74612a21565b5b612d8188828901612ca2565b925050608086013567ffffffffffffffff811115612da257612da1612a21565b5b612dae88828901612ca2565b9150509295509295909350565b612dc481612a26565b82525050565b6000602082019050612ddf6000830184612dbb565b92915050565b612dee81612ae9565b82525050565b6000602082019050612e096000830184612de5565b92915050565b600081519050919050565b600082825260208201905092915050565b60005b83811015612e49578082015181840152602081019050612e2e565b60008484015250505050565b6000612e6082612e0f565b612e6a8185612e1a565b9350612e7a818560208601612e2b565b612e8381612b94565b840191505092915050565b600060c082019050612ea36000830189612dbb565b8181036020830152612eb58188612e55565b9050612ec46040830187612dbb565b612ed16060830186612dbb565b8181036080830152612ee38185612e55565b9050612ef260a0830184612de5565b979650505050505050565b60006080820190508181036000830152612f178187612e55565b90508181036020830152612f2b8186612e55565b90508181036040830152612f3f8185612e55565b90508181036060830152612f538184612e55565b905095945050505050565b612f6781612b54565b8114612f7257600080fd5b50565b600081359050612f8481612f5e565b92915050565b600080600080600060a08688031215612fa657612fa5612a1c565b5b600086013567ffffffffffffffff811115612fc457612fc3612a21565b5b612fd088828901612ca2565b9550506020612fe188828901612a47565b9450506040612ff288828901612a47565b935050606086013567ffffffffffffffff81111561301357613012612a21565b5b61301f88828901612ca2565b925050608061303088828901612f75565b9150509295509295909350565b6000806000806080858703121561305757613056612a1c565b5b600085013567ffffffffffffffff81111561307557613074612a21565b5b61308187828801612ca2565b945050602061309287828801612a47565b93505060406130a387828801612a47565b925050606085013567ffffffffffffffff8111156130c4576130c3612a21565b5b6130d087828801612ca2565b91505092959194509250565b6000610120820190506130f2600083018c612dbb565b8181036020830152613104818b612e55565b9050613113604083018a612dbb565b6131206060830189612dbb565b81810360808301526131328188612e55565b905061314160a0830187612de5565b61314e60c0830186612b60565b61315b60e0830185612b60565b613169610100830184612b60565b9a9950505050505050505050565b60006101008201905061318d600083018b612dbb565b61319a602083018a612dbb565b81810360408301526131ac8189612e55565b90506131bb6060830188612dbb565b6131c86080830187612dbb565b6131d560a0830186612de5565b6131e260c0830185612b60565b6131ef60e0830184612b60565b9998505050505050505050565b600060c0820190506132116000830189612dbb565b61321e6020830188612dbb565b61322b6040830187612dbb565b6132386060830186612de5565b6132456080830185612b60565b61325260a0830184612b60565b979650505050505050565b6000806040838503121561327457613273612a1c565b5b600061328285828601612a47565b925050602061329385828601612f75565b9150509250929050565b7f4e6f742061206d616e7566616374757265720000000000000000000000000000600082015250565b60006132d3601283612e1a565b91506132de8261329d565b602082019050919050565b60006020820190508181036000830152613302816132c6565b9050919050565b7f52657175657374206e6f7420666f756e64000000000000000000000000000000600082015250565b600061333f601183612e1a565b915061334a82613309565b602082019050919050565b6000602082019050818103600083015261336e81613332565b9050919050565b7f4e6f7420796f7572207265717565737400000000000000000000000000000000600082015250565b60006133ab601083612e1a565b91506133b682613375565b602082019050919050565b600060208201905081810360008301526133da8161339e565b9050919050565b7f43616e6e6f742063616e63656c20617070726f76656420726571756573740000600082015250565b6000613417601e83612e1a565b9150613422826133e1565b602082019050919050565b600060208201905081810360008301526134468161340a565b9050919050565b60006040820190506134626000830185612dbb565b61346f6020830184612de5565b9392505050565b7f4e6f74206120686f73706974616c000000000000000000000000000000000000600082015250565b60006134ac600e83612e1a565b91506134b782613476565b602082019050919050565b600060208201905081810360008301526134db8161349f565b9050919050565b7f45717569706d656e74206e6f7420617661696c61626c65000000000000000000600082015250565b6000613518601783612e1a565b9150613523826134e2565b602082019050919050565b600060208201905081810360008301526135478161350b565b9050919050565b7f4e487b7100000000000000000000000000000000000000000000000000000000600052601160045260246000fd5b600061358882612a26565b91507fffffffffffffffffffffffffffffffffffffffffffffffffffffffffffffffff82036135ba576135b961354e565b5b600182019050919050565b7f4e487b7100000000000000000000000000000000000000000000000000000000600052602260045260246000fd5b6000600282049050600182168061360c57607f821691505b60208210810361361f5761361e6135c5565b5b50919050565b600061363082612a26565b915061363b83612a26565b925082820261364981612a26565b915082820484148315176136605761365f61354e565b5b5092915050565b60008190508160005260206000209050919050565b60006020601f8301049050919050565b600082821b905092915050565b6000600883026136c97fffffffffffffffffffffffffffffffffffffffffffffffffffffffffffffffff8261368c565b6136d3868361368c565b95508019841693508086168417925050509392505050565b6000819050919050565b600061371061370b61370684612a26565b6136eb565b612a26565b9050919050565b6000819050919050565b61372a836136f5565b61373e61373682613717565b848454613699565b825550505050565b600090565b613753613746565b61375e818484613721565b505050565b5b818110156137825761377760008261374b565b600181019050613764565b5050565b601f8211156137c75761379881613667565b6137a18461367c565b810160208510156137b0578190505b6137c46137bc8561367c565b830182613763565b50505b505050565b600082821c905092915050565b60006137ea600019846008026137cc565b1980831691505092915050565b600061380383836137d9565b9150826002028217905092915050565b61381c82612e0f565b67ffffffffffffffff81111561383557613834612ba5565b5b61383f82546135f4565b61384a828285613786565b600060209050601f83116001811461387d576000841561386b578287015190505b61387585826137f7565b8655506138dd565b601f19841661388b86613667565b60005b828110156138b35784890151825560018201915060208501945060208101905061388e565b868310156138d057848901516138cc601f8916826137d9565b8355505b6001600288020188555050505b505050505050565b7f4f6e6c7920537570657241646d696e2063616e2063616c6c2074686973000000600082015250565b600061391b601d83612e1a565b9150613926826138e5565b602082019050919050565b6000602082019050818103600083015261394a8161390e565b9050919050565b7f526177206d6174657269616c206e6f7420666f756e6400000000000000000000600082015250565b6000613987601683612e1a565b915061399282613951565b602082019050919050565b600060208201905081810360008301526139b68161397a565b9050919050565b7f4e6f7420656e6f7567682073746f636b00000000000000000000000000000000600082015250565b60006139f3601083612e1a565b91506139fe826139bd565b602082019050919050565b60006020820190508181036000830152613a22816139e6565b9050919050565b6000608082019050613a3e6000830187612dbb565b613a4b6020830186612dbb565b613a586040830185612dbb565b613a656060830184612de5565b95945050505050565b7f526177206d6174657269616c2072657175657374206e6f7420617070726f766560008201527f6400000000000000000000000000000000000000000000000000000000000000602082015250565b6000613aca602183612e1a565b9150613ad582613a6e565b604082019050919050565b60006020820190508181036000830152613af981613abd565b9050919050565b7f4e6f74206120737570706c696572000000000000000000000000000000000000600082015250565b6000613b36600e83612e1a565b9150613b4182613b00565b602082019050919050565b60006020820190508181036000830152613b6581613b29565b9050919050565b7f416c726561647920617070726f76656400000000000000000000000000000000600082015250565b6000613ba2601083612e1a565b9150613bad82613b6c565b602082019050919050565b60006020820190508181036000830152613bd181613b95565b9050919050565b7f4e6f7420796f757220726177206d6174657269616c0000000000000000000000600082015250565b6000613c0e601583612e1a565b9150613c1982613bd8565b602082019050919050565b60006020820190508181036000830152613c3d81613c01565b9050919050565b7f496e73756666696369656e742073746f636b0000000000000000000000000000600082015250565b6000613c7a601283612e1a565b9150613c8582613c44565b602082019050919050565b60006020820190508181036000830152613ca981613c6d565b9050919050565b6000613cbb82612a26565b9150613cc683612a26565b9250828203905081811115613cde57613cdd61354e565b5b92915050565b7f4e6f742061207472616e73706f72746572000000000000000000000000000000600082015250565b6000613d1a601183612e1a565b9150613d2582613ce4565b602082019050919050565b60006020820190508181036000830152613d4981613d0d565b9050919050565b7f416c726561647920736869707065640000000000000000000000000000000000600082015250565b6000613d86600f83612e1a565b9150613d9182613d50565b602082019050919050565b60006020820190508181036000830152613db581613d79565b9050919050565b7f4e6f742061207374616b65686f6c646572000000000000000000000000000000600082015250565b6000613df2601183612e1a565b9150613dfd82613dbc565b602082019050919050565b60006020820190508181036000830152613e2181613de5565b9050919050565b7f45717569706d656e74206e6f742072656769737465726564206279206d616e7560008201527f6661637475726572000000000000000000000000000000000000000000000000602082015250565b6000613e84602883612e1a565b9150613e8f82613e28565b604082019050919050565b60006020820190508181036000830152613eb381613e77565b9050919050565b7f4e6f742073686970706564207965740000000000000000000000000000000000600082015250565b6000613ef0600f83612e1a565b9150613efb82613eba565b602082019050919050565b60006020820190508181036000830152613f1f81613ee3565b9050919050565b7f416c72656164792064656c697665726564000000000000000000000000000000600082015250565b6000613f5c601183612e1a565b9150613f6782613f26565b602082019050919050565b60006020820190508181036000830152613f8b81613f4f565b905091905056fea2646970667358221220536ff4fe0fbb574fac6f2624e56452b2345a031509d465bb9dc13183514915f564736f6c63430008120033",
  "immutableReferences": {},
  "source": "// SPDX-License-Identifier: MIT\r\npragma solidity ^0.8.18;\r\n\r\ncontract MedicalSupplyChain {\r\n    address public superAdmin;\r\n\r\n    constructor() {\r\n        superAdmin = msg.sender;\r\n    }\r\n\r\n    // ---------------- User Info ----------------\r\n    struct UserInfo {\r\n        string name;\r\n        string contact;\r\n        string emailId;\r\n        string userAddress; \r\n    }\r\n\r\n    mapping(address => UserInfo) public userDetails;\r\n\r\n    function setUserDetails(\r\n        address _user,\r\n        string memory _name,\r\n        string memory _contact,\r\n        string memory _emailId,\r\n        string memory _userAddress\r\n    ) internal {\r\n        userDetails[_user] = UserInfo(_name, _contact, _emailId, _userAddress);\r\n    }\r\n\r\n    // ---------------- Stakeholders ----------------\r\n    mapping(address => bool) public suppliers;\r\n    mapping(address => bool) public manufacturers;\r\n    mapping(address => bool) public hospitals;\r\n    mapping(address => bool) public transporters;\r\n    mapping(address => bool) public stakeholders;\r\n\r\n    // ---------------- Modifiers ----------------\r\n    modifier onlySuperAdmin() {\r\n        require(msg.sender == superAdmin, \"Only SuperAdmin can call this\");\r\n        _;\r\n    }\r\n    modifier onlySupplier() {\r\n        require(suppliers[msg.sender], \"Not a supplier\");\r\n        _;\r\n    }\r\n    modifier onlyManufacturer() {\r\n        require(manufacturers[msg.sender], \"Not a manufacturer\");\r\n        _;\r\n    }\r\n    modifier onlyHospital() {\r\n        require(hospitals[msg.sender], \"Not a hospital\");\r\n        _;\r\n    }\r\n    modifier onlyTransporter() {\r\n        require(transporters[msg.sender], \"Not a transporter\");\r\n        _;\r\n    }\r\n    modifier onlyStakeholder() {\r\n        require(stakeholders[msg.sender], \"Not a stakeholder\");\r\n        _;\r\n    }\r\n\r\n    // ---------------- SuperAdmin Registers Stakeholders ----------------\r\n    function registerSupplier(\r\n        address _addr,\r\n        string memory _name,\r\n        string memory _contact,\r\n        string memory _emailId,\r\n        string memory _userAddress\r\n    ) external onlySuperAdmin {\r\n        suppliers[_addr] = true;\r\n        setUserDetails(_addr, _name, _contact, _emailId, _userAddress);\r\n    }\r\n\r\n    function registerManufacturer(\r\n        address _addr,\r\n        string memory _name,\r\n        string memory _contact,\r\n        string memory _emailId,\r\n        string memory _userAddress\r\n    ) external onlySuperAdmin {\r\n        manufacturers[_addr] = true;\r\n        setUserDetails(_addr, _name, _contact, _emailId, _userAddress);\r\n    }\r\n\r\n    function registerHospital(\r\n        address _addr,\r\n        string memory _name,\r\n        string memory _contact,\r\n        string memory _emailId,\r\n        string memory _userAddress\r\n    ) external onlySuperAdmin {\r\n        hospitals[_addr] = true;\r\n        setUserDetails(_addr, _name, _contact, _emailId, _userAddress);\r\n    }\r\n\r\n    function registerTransporter(\r\n        address _addr,\r\n        string memory _name,\r\n        string memory _contact,\r\n        string memory _emailId,\r\n        string memory _userAddress\r\n    ) external onlySuperAdmin {\r\n        transporters[_addr] = true;\r\n        setUserDetails(_addr, _name, _contact, _emailId, _userAddress);\r\n    }\r\n\r\n    function registerStakeholder(\r\n        address _addr,\r\n        string memory _name,\r\n        string memory _contact,\r\n        string memory _emailId,\r\n        string memory _userAddress\r\n    ) external onlySuperAdmin {\r\n        stakeholders[_addr] = true;\r\n        setUserDetails(_addr, _name, _contact, _emailId, _userAddress);\r\n    }\r\n\r\n    // ---------------- Raw Materials ----------------\r\n    struct RawMaterial {\r\n        uint id;\r\n        string name;\r\n        uint quantity;\r\n        uint price;\r\n        string category;\r\n        address supplier;\r\n    }\r\n\r\n    uint public rawMaterialCount;\r\n    mapping(uint => RawMaterial) public rawMaterials;\r\n\r\n    function createRawMaterial(\r\n        string memory _name,\r\n        uint _quantity,\r\n        uint _price,\r\n        string memory _category\r\n    ) external onlySupplier {\r\n        rawMaterialCount++;\r\n        rawMaterials[rawMaterialCount] = RawMaterial(\r\n            rawMaterialCount,\r\n            _name,\r\n            _quantity,\r\n            _price,\r\n            _category,\r\n            msg.sender\r\n        );\r\n    }\r\n\r\n    // ---------------- Raw Material Requests ----------------\r\n    struct RawMaterialRequest {\r\n        uint id;\r\n        uint rawMaterialId;\r\n        uint quantity;\r\n        address manufacturer;\r\n        bool approved;\r\n        bool cancelledBySupplier;\r\n    }\r\n\r\n    uint public requestCount;\r\n    mapping(uint => RawMaterialRequest) public rawMaterialRequests;\r\n\r\n    event RawMaterialRequested(uint requestId, uint rawMaterialId, uint quantity, address manufacturer);\r\n    event RawMaterialRequestApproved(uint requestId, uint rawMaterialId, uint quantity, address supplier);\r\n    event RawMaterialRequestCancelled(uint requestId, address manufacturer);\r\n    event RawMaterialRequestCancelledBySupplier(uint requestId, address supplier);\r\n\r\n    function requestRawMaterial(uint _rawMaterialId, uint _quantity) external onlyManufacturer {\r\n        require(rawMaterials[_rawMaterialId].id != 0, \"Raw material not found\");\r\n        require(rawMaterials[_rawMaterialId].quantity >= _quantity, \"Not enough stock\");\r\n\r\n        requestCount++;\r\n        rawMaterialRequests[requestCount] = RawMaterialRequest(\r\n            requestCount,\r\n            _rawMaterialId,\r\n            _quantity,\r\n            msg.sender,\r\n            false,\r\n            false\r\n        );\r\n\r\n        emit RawMaterialRequested(requestCount, _rawMaterialId, _quantity, msg.sender);\r\n    }\r\n\r\n    function approveRawMaterialRequest(uint _requestId) external onlySupplier {\r\n        RawMaterialRequest storage r = rawMaterialRequests[_requestId];\r\n        require(r.id != 0, \"Request not found\");\r\n        require(!r.approved, \"Already approved\");\r\n        require(rawMaterials[r.rawMaterialId].supplier == msg.sender, \"Not your raw material\");\r\n\r\n        RawMaterial storage rm = rawMaterials[r.rawMaterialId];\r\n        require(rm.quantity >= r.quantity, \"Insufficient stock\");\r\n\r\n        rm.quantity -= r.quantity;\r\n        r.approved = true;\r\n\r\n        emit RawMaterialRequestApproved(_requestId, r.rawMaterialId, r.quantity, msg.sender);\r\n    }\r\n\r\n    // ---------------- Manufacturer Cancel ----------------\r\n    function cancelRawMaterialRequest(uint _requestId) external onlyManufacturer {\r\n        RawMaterialRequest storage r = rawMaterialRequests[_requestId];\r\n        require(r.id != 0, \"Request not found\");\r\n        require(r.manufacturer == msg.sender, \"Not your request\");\r\n        require(!r.approved || r.cancelledBySupplier, \"Cannot cancel approved request\");\r\n\r\n        delete rawMaterialRequests[_requestId];\r\n\r\n        emit RawMaterialRequestCancelled(_requestId, msg.sender);\r\n    }\r\n\r\n    // ---------------- Supplier Cancel ----------------\r\n    function supplierCancelRawMaterialRequest(uint _requestId) external onlySupplier {\r\n        RawMaterialRequest storage r = rawMaterialRequests[_requestId];\r\n        require(r.id != 0, \"Request not found\");\r\n        require(!r.approved, \"Already approved\");\r\n\r\n        RawMaterial storage rm = rawMaterials[r.rawMaterialId];\r\n        require(rm.supplier == msg.sender, \"Not your raw material\");\r\n\r\n        r.cancelledBySupplier = true;\r\n\r\n        emit RawMaterialRequestCancelledBySupplier(_requestId, msg.sender);\r\n    }\r\n\r\n    // ---------------- Equipments ----------------\r\n    struct Equipment {\r\n        uint id;\r\n        string name;\r\n        uint rawMaterialRequestId;\r\n        uint price;\r\n        string category;\r\n        address manufacturer;\r\n        bool registered;\r\n        bool verified;\r\n        bool available;\r\n    }\r\n\r\n    uint public equipmentCount;\r\n    mapping(uint => Equipment) public equipments;\r\n\r\n    function createEquipment(\r\n        string memory _name,\r\n        uint _rawMaterialRequestId,\r\n        uint _price,\r\n        string memory _category,\r\n        bool _register\r\n    ) external onlyManufacturer {\r\n        RawMaterialRequest storage r = rawMaterialRequests[_rawMaterialRequestId];\r\n        require(r.approved, \"Raw material request not approved\");\r\n        require(r.manufacturer == msg.sender, \"Not your request\");\r\n\r\n        equipmentCount++;\r\n        equipments[equipmentCount] = Equipment(\r\n            equipmentCount,\r\n            _name,\r\n            _rawMaterialRequestId,\r\n            _price,\r\n            _category,\r\n            msg.sender,\r\n            _register,\r\n            false,\r\n            false\r\n        );\r\n    }\r\n\r\n    // ---------------- Stakeholder Verification ----------------\r\n    function verifyEquipment(uint _equipmentId, bool _isValid) external onlyStakeholder {\r\n        Equipment storage e = equipments[_equipmentId];\r\n        require(e.registered, \"Equipment not registered by manufacturer\");\r\n\r\n        e.verified = _isValid;\r\n        e.available = _isValid;\r\n    }\r\n\r\n    // ---------------- Orders ----------------\r\n    struct Order {\r\n        uint id;\r\n        uint equipmentId;\r\n        string equipmentName;\r\n        uint quantity;\r\n        uint totalPrice;\r\n        address transporter;\r\n        bool shipped;\r\n        bool delivered;\r\n    }\r\n\r\n    uint public orderCount;\r\n    mapping(uint => Order) public orders;\r\n\r\n    function isEquipmentAvailableForOrder(uint _equipmentId) public view returns (bool) {\r\n        Equipment storage e = equipments[_equipmentId];\r\n        return e.registered && e.verified && e.available;\r\n    }\r\n\r\n    function orderEquipment(uint _equipmentId, uint _quantity) external onlyHospital {\r\n        Equipment storage e = equipments[_equipmentId];\r\n        require(isEquipmentAvailableForOrder(_equipmentId), \"Equipment not available\");\r\n\r\n        orderCount++;\r\n        orders[orderCount] = Order(\r\n            orderCount,\r\n            _equipmentId,\r\n            e.name,\r\n            _quantity,\r\n            e.price * _quantity,\r\n            address(0),\r\n            false,\r\n            false\r\n        );\r\n    }\r\n\r\n    function shipEquipment(uint _orderId) external onlyTransporter {\r\n        Order storage o = orders[_orderId];\r\n        require(!o.shipped, \"Already shipped\");\r\n        o.shipped = true;\r\n        o.transporter = msg.sender;\r\n    }\r\n\r\n    function confirmDelivery(uint _orderId) external onlyHospital {\r\n        Order storage o = orders[_orderId];\r\n        require(o.shipped, \"Not shipped yet\");\r\n        require(!o.delivered, \"Already delivered\");\r\n\r\n        o.delivered = true;\r\n        equipments[o.equipmentId].available = false;\r\n    }\r\n}\r\n",
  "sourcePath": "D:\\test code\\Medical Equipment\\frontend\\contracts\\MedicalSupplyChain.sol",
  "compiler": {
    "name": "solc",
    "version": "0.8.18+commit.87f61d96.Emscripten.clang"
  },
  "schemaVersion": "3.4.16",
  "updatedAt": "2025-12-04T08:51:25.426Z",
  "networkType": "ethereum",
  "devdoc": {
    "kind": "dev",
    "methods": {},
    "version": 1
  },
  "userdoc": {
    "kind": "user",
    "methods": {},
    "version": 1
  }
}